:020000040800F2
:100000008804002001010008FD0C0008F90C00081C
:10001000FB0C000849010008051000080000000062
:10002000000000000000000000000000FF0E0008BB
:100030008501000800000000FF0C0008010F000807
:100040001B0100081B0100081B0100081B01000820
:100050001B0100081B0100081B0100081B01000810
:100060001B0100081B0100081B0100081B01000800
:100070001B0100081B0100081B0100081B010008F0
:100080001B0100081B0100081B0100081B010008E0
:100090001B0100081B0100081B0100081B010008D0
:1000A0001B0100081B0100081B0100081B010008C0
:1000B0001B0100081B0100081B0100081B010008B0
:1000C0001B0100081B0100081B010008010D0008AE
:1000D0001B0100081B0100081B0100081B01000890
:1000E0001B0100081B0100081B010008DFF80CD0F1
:1000F00000F018F8004800472D1000088804002080
:100100000648804706480047FEE7FEE7FEE7FEE7B1
:10011000FEE7FEE7FEE7FEE7FEE7FEE7510F000819
:10012000ED000008064C074D06E0E06840F00103D2
:1001300094E8070098471034AC42F6D3FFF7DAFF93
:100140006C1100088C110008FEE7000010B5DFF804
:100150002CE00B4A01204FF0000C002107E054185E
:100160001EF80130013164789C4218BF60460A29AC
:10017000F5D17A21C0B2917210BD00BF0C000020F1
:10018000200000207047000090F8211002291BD1A8
:1001900002681F4B11689A4221F00E01116011682C
:1001A00021F001011160194912D01A4B9A4211D065
:1001B000194B9A4210D0194B9A4210D0184B9A42C0
:1001C00010D14FF4803315E0042181630120704782
:1001D00001230FE010230DE04FF480730AE04FF489
:1001E000805307E001F1680C4FF08073624508BF4F
:1001F0004FF480130B604FF480710184416B19B18F
:1002000080B58847002080BD002070470400024070
:10021000080002401C00024030000240440002403E
:1002200058000240B0B5044600F0E6F805468F4895
:10023000611C007818BF044400F0DEF8401BA042A7
:10024000FAD3B0BD2DE9FC4F594A04234FF0000BFF
:100250004FF001084FF00F0E4FF0000900259042BB
:1002600008BF032300930A6832FA05F308BFBDE80C
:10027000FC8F08FA05F73A4200F096804A68032A94
:1002800016D9112A24D0122A26D04C4B9A4213D0C8
:100290004B4B9A4210D04B4B9A420DD04A4B9A424C
:1002A0000AD04A4B9A4207D0494B9A4204D020E0E8
:1002B000DFE802F00216191D8A6832B1012A14BF64
:1002C000476107614FF0080913E04FF0040910E09F
:1002D000CA6802F104090CE0CA6802F10C0908E0DE
:1002E000D1F80C9005E0CA6802F1080901E04FF06E
:1002F00000095A460446082D28BF203A28BF043476
:1003000026680EFA02F309FA02F226EA03031A43F8
:100310002260CA79D20647D5634A0BF00C0C13460B
:10032000126842F001021A601A680EFA0CF302F029
:10033000010201921F4A019CAC08A2F57E7656F894
:10034000242022EA030A234A904208D0224A9042FB
:1003500007D0224A009B904208BF022302E00023FC
:1003600000E0012303FA0CF242EA0A0246F82420D4
:10037000104E4A68D303336854BFBB433B433360DA
:100380009303736854BFBB433B437360D302B368AA
:1003900054BFBB433B439202B360074A1346126803
:1003A00054BFBA433A431A600BF1040B01355AE7C4
:1003B00000140140000401400C0401400000111031
:1003C0000000121000002110000022100000311067
:1003D0000000321000080140000C014000100140F4
:1003E000C26814230A4208BF1023C1507047002A74
:1003F00008BF09040161704705480068704700BFE5
:100400001A48034900780A6810440860704700BF22
:100410008400002080B59048016841F0100101601F
:10042000032000F071F8002000F004F800F020F83C
:10043000002080BD70B50D4E04464FF47A713078BF
:10044000B1FBF0F086490968B1FBF0F000F040FC28
:1004500001250F2C08D838B94FF0FF302146002273
:10046000002500F033F87460284670BD00000020BD
:1004700082B00D480222016841F00101016001686B
:1004800001F0010101910199416841F08051416001
:10049000406800F08050009000980448016862F3C2
:1004A0001A61016002B07047181002400400014058
:1004B000002808DB00F01F010122400902FA01F1C7
:1004C000014A42F82010704700E100E080B5144B6B
:1004D0001B68C3F3022CBCF1030E8CF007034FF032
:1004E000FF3C38BF4FF0000E042B28BF04230CFA4A
:1004F00003F399430CFA0EF301FA0EF19A431143F8
:10050000BDE8804000F080BD05494FF6FF030A6852
:100510001A4060F30A22034810430860704700BF86
:100520000CED00E00000FA052DE9F843002800F08A
:100530008E80884648490446086800F00700404518
:100540000AD2086820F0070040EA0800086008683E
:1005500000F0070040457AD12068514B8946810759
:1005600011D5410742BF196841F4E06119600107E4
:1005700042BF196841F4605119601968A26821F0FE
:10058000F00111431960C0072AD06068012804D126
:1005900053F8041C890309D459E053F8041C0228B9
:1005A00002D1890102D452E0890750D519681D464D
:1005B00021F0030108431860FFF71EFF064641F2D1
:1005C0008837286861682B4600F00C00B0EB810F7B
:1005D00006D0FFF711FF801BB842F2D9032037E0A5
:1005E000D9F8000000F0070040450DD9D9F8000007
:1005F00020F0070040EA0800C9F80000D9F8000020
:1006000000F00700404522D12068410705D5196850
:10061000E26821F4E06111431960000706D518680B
:10062000216920F4605040EAC10018601C4600F0C7
:100630001BF82168094AC1F30311515CC840E7491E
:10064000086008480068FFF7F5FE002000E0012080
:1006500001B0BDE8F08300BF002002405A1100083D
:10066000080000200400002010B50D4C0D48226841
:1006700002F00C03082B18BF10BDC2F383430AA17C
:10068000CB5CD10302D40D48584310BD21680AA2A7
:100690005843C1F34041515CB0FBF1F010BD00BFC5
:1006A0000410024000127A0002030405060708093C
:1006B0000A0B0C0D0E0F10100102000000093D0086
:1006C0002DE9FC41002800F0408104460078C14E2D
:1006D000C0074AD0706800F00C00042817D070687A
:1006E00000F00C00082802D17068C0030FD46068C5
:1006F00098B1B0F5803F06D03168B0F5A02F21D178
:1007000041F480203060306840F4803020E0306870
:1007100080032AD5606840BB17E1306820F4803040
:100720003060306820F480203060FFF765FE0546B9
:100730003068800319D5FFF75FFE411B0320642951
:10074000F6D903E121F480303060306820F4802055
:100750003060FFF751FE05463068800305D4FFF78F
:100760004BFE401B6428F7D9D1E0207880072BD5B9
:10077000706810F00C0F07D0706800F00C000828AB
:1007800009D17068C00306D43068800715D5206988
:10079000012812D0D9E021698F4800297CD001219D
:1007A0000160FFF729FE05463068800705D4FFF792
:1007B00023FE401B0228F7D9A9E03068616920F0C8
:1007C000F80040EAC1003060207800072ED5A0690B
:1007D00078B181480121C0F88014FFF70DFE05466D
:1007E000706A800715D4FFF707FE401B0228F7D96F
:1007F0008DE079480021C0F88014FFF7FDFD054623
:10080000706A800712D5FFF7F7FD401B0228F7D961
:100810007DE072484FF4FA510068B0FBF1F00190AE
:1008200000BF0198411E00280191F9D120784007AE
:1008300076D5F069C0000BD4F0694FF0010840F0A4
:100840008050F061F06900F080500090009801E065
:100850004FF00008624F3868C0050FD4386840F484
:1008600080703860FFF7C8FD05463868C00505D4BC
:10087000FFF7C2FD401B6428F7D948E0E068D8B113
:10088000012805D0316A05282DD141F004003062DD
:10089000306A40F001002CE000210160FFF7ACFD60
:1008A0000546306880077FF58FAFFFF7A5FD411B38
:1008B00003200229F5D949E0306A20F001003062B6
:1008C000306A20F004003062FFF796FD054641F2E1
:1008D0008837306A80071CD5FFF78EFD411B032047
:1008E000B942F6D932E021F001003062306A20F0DE
:1008F00004003062FFF780FD054641F28837306A18
:10090000800706D4FFF778FD401BB842F7D90320D3
:100910001CE0B8F1000F1EBFF06920F08050F061BC
:10092000E769002F53D0706800F00C00082810D140
:10093000012F0AD07068216A00F480328A4204D103
:10094000616A00F47010884241D0012002B0BDE815
:10095000F0812149002088460866FFF74DFD0546D5
:10096000022F0AD147463068800110D5FFF744FDB9
:10097000411B03200229F6D9E8E73068800126D51B
:10098000FFF73AFD411B03200229F6D9DEE7206A72
:10099000B0F5803F05D17168A26821F400311143A0
:1009A00071607168626A104321F4741108437060C9
:1009B00001203866FFF720FD04463068800106D428
:1009C000FFF71AFD011B03200229F6D9BEE700201C
:1009D000BCE700BF001002400000424208000020B7
:1009E00000700040704700001FB504460068416871
:1009F00082684B0605D502F04103012B01D1216C21
:100A000005E00B0608D512F0020305D0616C204604
:100A100004B0BDE8104008478B0655D512F06003BE
:100A200052D012F0400316D094F85130032B07D166
:100A300000210291C168029180680290029843E00F
:100A4000636D43F00403636500230393C36803935A
:100A500083680393039B12F020020CD0626D42F076
:100A6000010262650022019282680192026822F00E
:100A700040020260019A626D32B34268890722F037
:100A8000E00242604FF0010284F851201DD041681D
:100A900021F003014160E06C40B10F494163FFF771
:100AA00073FB18B1606D40F040006065A06C58B1F8
:100AB00009494163FFF768FB002808BF1FBD606D4F
:100AC00040F0400060651FBD1FBD204604B0BDE87A
:100AD0001040FFF787BF00BF510E000870B5B8B3D4
:100AE000002605464FF0000C866290F8510030B9A0
:100AF000284685F8506000F02FF8D5F828C002216C
:100B000085F8511029680A6822F040020A60D5E988
:100B10000123D5E903041A4310436A6920431043B3
:100B2000AA6902F400731843EB6918432B6A18434F
:100B300040EA0C000860042000EA12404860C869DE
:100B400020F40060C86101206E6585F8510000E066
:100B50000126304670BD000070B586B000261D4CE1
:100B6000CDE90466CDE90266006804F520518842AB
:100B70002DD1194802AD016841F48051016001682E
:100B800001F4805101910199016841F00401016073
:100B90002946006800F004000190019803200590A8
:100BA00002200390A02002902046FFF74BFB40203C
:100BB000CDE90366294602902046FFF743FB232038
:100BC00000210022FFF782FC2320FFF771FC06B012
:100BD00070BD00BF000801401810024070470000BF
:100BE00090F850C0BCF1010F02D14FF0020C58E058
:100BF00080B54FF0010C80F850C090F851E0BEF184
:100C0000010F37D14FF0010C002945D0002A43D005
:100C1000002B41D090F851C0DFF88CE0BCF1040FFC
:100C20001CBF4FF0050C80F851C04FF0000CC0F80D
:100C300054C0C3868386016383878263C3871B4B4B
:100C4000C2680168002A1B4A08BF7346DFF860E0EB
:100C500008BF7246C0E910234A6842F0E0024A60C9
:100C60000A68520618D40A684FF0000C42F040029D
:100C70000A6011E0D0F804C0BCF5827F0AD14FF0C1
:100C8000020CBEF1040F07D1D0F808E0BEF1000F4E
:100C9000B8D001E04FF0020C002180F85010BDE800
:100CA00080406046704700BF890D0008610D000854
:100CB000350D00080D0D000880B5FFF747FA012833
:100CC00018BF80BDCD4801780131017080BD00BFE3
:100CD000411E0020B0EB116F1CBF01207047044A79
:100CE000F023516003490B70072190601160704739
:100CF00010E000E023ED00E0FEE7FEE770477047FC
:100D00000148FFF771BE00BF2C0000200168CA68CF
:100D1000836B23F8022BC28F013AC2878363C28F91
:100D20002AB94A6822F040024A60C18E01B1704778
:100D300000F040B80168097B826B1170C18F0139E6
:100D4000C187816B01318163C18F31B901684A6804
:100D500022F060024A60C18E01B1704700F02AB8EB
:100D6000026B016832F8023BCB60C38E013BC38645
:100D70000263C28E2AB94A6822F080024A60C18F9B
:100D800001B1704700F016B8026B016812780A735F
:100D9000C18E0139C186016B01310163C18E31B948
:100DA00001684A6822F080024A60C18F01B1704731
:100DB000AFF300801CB50446244845F6C0510068D6
:100DC000B0FBF1F0642148430190FFF715FB0246A8
:100DD0002068416821F020014160019931B10199F9
:100DE0000139019181688907F7D503E0606D40F012
:100DF000200060652046642100F030F818B1606D75
:100E000040F020006065A06838B90020009020689C
:100E1000C1680091806800900098606D30B1012039
:100E200084F851002046FFF7DDFD1CBD94F8510009
:100E3000012184F85110042803D12046FFF7CEFE8B
:100E40001CBD2046FFF738FF1CBD00BF0800002076
:100E5000406A0021C187C186FFF7C4BD10B51346A3
:100E60000A468021044600F00AF800280FBF00203F
:100E7000606D40F02000606518BF032010BD2DE9B3
:100E8000F041984616460F460446551C2068806877
:100E90003840B8421CBF0020BDE8F081002DF5D0DD
:100EA000FFF7AAFAA0EB0800B042EFD32068416830
:100EB00021F0E00141606168B1F5827F0AD1A1684B
:100EC000B1F5004F02D0B1F5806F03D1016821F078
:100ED00040010160A16AB1F5005F07D1016821F40A
:100EE00000510160016841F400510160002084F864
:100EF0005000012084F851000320BDE8F0817047C4
:100F0000FFF77EBAB0B590B000244FF480100225F0
:100F10000121CDE90B44CDE909440F904FF4803015
:100F20000E900D950A910894CDE9061006A8FFF7DA
:100F3000C7FB4FF480600594022104900F20CDE997
:100F40000254019001A8FFF7EFFA10B0B0BD000005
:100F50000E480F4A016841F00101016041681140EB
:100F60000C4A4160016811400160016821F4802150
:100F70000160416821F4FE0141604FF41F0181606E
:100F800005484FF000610160704700BF001002404B
:100F90000000FFF8FFFFF6FE08ED00E010B50228A4
:100FA00015D0012818BF10BD624C4FF4007100220B
:100FB0002046FFF71CFA60490A2301F10C004A1C85
:100FC0000F49FFF70DFE20464FF4007111E0594C18
:100FD0004FF4806100222046FFF709FA56490A23A0
:100FE00001F10C004A1C0649FFF7FAFD20464FF4B8
:100FF00080610122BDE81040FFF7F9B92000002010
:1010000016000020FEE7000010B5074C00F00F03AB
:10101000044AB0F1FF3F2344C8BF83180801187089
:1010200010BD00BF00E400E014ED00E084B0FFF765
:10103000F1F9FFF767FF3E483E4D01224FF400569D
:101040004FF00108016805F5006441F010010160EE
:10105000016801F0100100910099016841F0200140
:101060000160016801F0200100910099016841F0E0
:10107000040101604FF40051006800F0040000908A
:1010800000982046FFF7B3F928464FF4C0610122CB
:101090004FF4C069FFF7ABF94FF0020A0027204672
:1010A000CDF80CA00297CDE900686E463146FFF7F7
:1010B000C9F828463146CDE9027ACDE90098FFF714
:1010C000C1F81D4E05F520500A214FF40072354637
:1010D00045F80C0F4FF48270C5E90977E962C5E95C
:1010E000010728460821C5E90377C5E90572C5E966
:1010F0000717FFF7F3FC2868016841F04001016021
:101100000120FFF78FF80120FFF748FF0A20FFF7C3
:1011100089F80220FFF742FF30780228FCD12046F0
:101120004FF40051FFF75CF9C820FFF77BF8F3E7B5
:1011300018100240000801402000002002E008C80A
:10114000121F08C1002AFAD170477047002001E041
:1011500001C1121F002AFBD17047000000000000EF
:1011600000000102030406070809000090110008AE
:1011700000000020200000003C110008B011000811
:1011800020000020680400004C110008000000004E
:1011900001000000100000000024F4003534333258
:1011A0003168656C6C6F68656C6C6F3132333435E7
:04000005080000ED02
:00000001FF
