:020000040800F2
:100000008804002001010008FB180008791000088E
:10001000F91800086D0100089D1900080000000093
:10002000000000000000000000000000FF180008B1
:100030009D01000800000000FD18000801190008DB
:100040001B0100081B0100081B0100081B01000820
:100050001B0100081B0100081B0100081B01000810
:100060001B0100081B0100081B0100081B01000800
:100070001B0100081B0100081B0100081B010008F0
:100080001B0100081B0100081B0100081B010008E0
:100090001B0100081B0100081B0100081B010008D0
:1000A0001B0100081B0100081B0100081B010008C0
:1000B0001B0100081B0100081B0100081B010008B0
:1000C0001B0100087D1000081B0100081B0100082F
:1000D0001B0100081B0100081B0100081B01000890
:1000E0001B0100081B0100081B010008DFF80CD0F1
:1000F00000F02AF800480047DD19000888040020B5
:100100000648804706480047FEE7FEE7FEE7FEE7B1
:10011000FEE7FEE7FEE7FEE7FEE7FEE7551900080B
:10012000ED000008D2B201E000F8012B491EFBD21D
:1001300070470022F6E710B513460A4604461946F2
:10014000FFF7F0FF204610BD064C074D06E0E068C3
:1001500040F0010394E8070098471034AC42F6D30E
:10016000FFF7C8FFD01A0008F01A0008FEE70000E9
:1001700030B50120074A084B0021545C5D5CAC425D
:1001800000D00020491CC9B20A29F6D37A21517245
:1001900030BD00007C0000200B00002070470000F4
:1001A00010B590F821100024022903D004218163A6
:1001B00001243DE001680A6822F00E020A6001682D
:1001C0000A6822F001020A601A4A0168914201D1CC
:1001D000012121E0174A1432914201D110211BE084
:1001E000144A2832914201D1891515E0114A3C3256
:1001F000914201D189140FE00E4A5032914202D14E
:100200004FF4803108E00B4A6432914202D14FF43E
:10021000801101E04FF08071064A083A51600121D7
:1002200080F82110002180F82010416B01B188472F
:10023000204610BD0800024090F8210070470000E1
:1002400070B5044600F00AF90546601C02D0044867
:100250000078044400F002F9401BA042FAD370BDBC
:10026000180000202DE9F84FDFF8B891002409F1BB
:10027000040A0AF1040B23460F270BF1040EC9E010
:100280000125A5402A40AA427DD1674ED1F804C07D
:10029000ACEB0608B44532D014DCBCF1030F3AD005
:1002A00009DCBCF1000F2AD0BCF1010F1CD0BCF15D
:1002B000020F31D11DE0BCF1110F17D0BCF1120FAC
:1002C0002AD119E0B8F5881F19D006DCB8F5803FAF
:1002D00015D0B8F5801F1FD111E0B8F5001F0ED062
:1002E000B8F5041F18D10AE0CB6815E0CB681B1DD8
:1002F00012E0CB6808330FE0CB680C330CE08B685E
:100300002BB1012B4FF0080303D0456104E0042317
:1003100002E0056100E00023FF2A01D8064601E063
:1003200000F104064FEA840501D9A5F12005D6F8AD
:10033000008007FA05FC28EA0C0803FA05F548EAEC
:100340000508C6F800804D68ED0062D5374DAE69EE
:1003500046F00106AE61AD6924F0030605F0010523
:100360000095334D06EB050CDCF80850A607360F58
:1003700007FA06F825EA0805DFF8B880404503D1FA
:100380004FF0000817E044E0DFF8AC80404502D1B0
:100390004FF001080FE0DFF8A480404502D14FF094
:1003A000020808E0DFF89880404502D14FF00308CA
:1003B00001E04FF0040808FA06F848EA0508CCF80E
:1003C00008804D68D9F80060ED034D4601D516430D
:1003D00000E096432E604D68DAF80060AD035546A4
:1003E00001D5164300E096432E604D68DBF80060AF
:1003F000ED025D4601D5164300E096432E604D6840
:10040000DEF80060AD02754601D5164300E0964364
:100410002E60641C0D682A46E5407FF431AFBDE8CC
:10042000F88F00000004014000001110001002408D
:100430000000014000080140000C01400010014094
:1004400000140140C2680A4201D041617047016155
:1004500070470AB1016170470904FBE701488068F1
:100460007047000018000020704770472DE9F041E8
:10047000026800245168C56A90F83E3090F83D60EB
:10048000102B1CD0402B1AD0036C002B7ED053694C
:100490004FF02805DB439F0779D4CF43BF0576D4BF
:1004A000016C01B1946990F83D3000219D430B46E9
:1004B0007FD0C91E516180F83C30BDE8F08194695D
:1004C00053694FF42A07DB435FEAC37C4FF02A46A7
:1004D00004D0BD42F1D0B542EFD010E0CD43AD0520
:1004E0000DD4C16AB94201D1012103E0C16AB14210
:1004F00001D10821C162BDE8F04101F0C7B81D0774
:1005000016D4CD43AD0513D4416CC9B21161416B12
:1005100011B9826B002AD0D0896A19B9816B896AB6
:100520000029CAD00068416841F400614160C4E715
:100530009D0706D4CD43AD0503D4BDE8F04100F0DE
:10054000F9BFE443526864074FEA025215D4002A07
:10055000B3DB1A0608D4CA43520505D45A0705D599
:10056000BDE8F04100F064BF5A07A6D4C94389052D
:10057000A3D4BDE8F04100F019BF002A9DDB5A0664
:100580000CD4CA43520509D45A0702E00FE023E015
:100590000FE005D5BDE8F04100F0BFBE5A078CD48E
:1005A000C943890589D4BDE8F04100F04DBE946986
:1005B0006DE7556825F480655560E243540700D522
:1005C0000121120601D5828900E0028B80F83C30BF
:1005D00092B2FFF74AFF70E7DC0606D4CC43A405CD
:1005E00003D4BDE8F04101F099B8212E27D0292E7F
:1005F00025D05C0655D4CC43640552D45B0752D554
:1006000090F83D10438D002B91D01269436A1A7007
:10061000426A521C4262428D521E4285428D002A1D
:1006200085D12A29D7D101684A6822F480624A60BC
:100630002221016380F83D5000F004FA3DE71C06DA
:1006400023D4CC43640520D45B0720D590F83D101B
:10065000438D002BBFD0436A1B781361426A521C42
:100660004262428D521E4285428D002AB3D1292911
:10067000B1D101684A6822F480624A602121016395
:1006800080F83D5000F0DFF917E75B07A3D4C943BA
:100690008905A0D4418D00299DD0416A0978116156
:1006A0000AE05B0797D4C943890594D4418D00299A
:1006B00091D01169426A1170416A491C4162418DB1
:1006C000491E4185F9E6704790F83D0070470000EB
:1006D00070B504001BD094F83D00002520B984F8C3
:1006E0003C50204600F076F9242084F83D00206834
:1006F000016821F00101016000F0D4FA4D4A6168FF
:10070000914201D84C4900E04C49884201D2012075
:1007100070BD4B492368B0FBF1F15E6826F03F06DF
:100720000E435E606368934206D94FF49673594353
:100730004FF47A73B1FBF3F12368491C1E6A26F06B
:100740003F06314319626168914210D84900401E4A
:10075000B0FBF1F2521CC2F30B02042A01D20420B6
:1007600022E0B0FBF1F0401CC0F30B001CE0A368DA
:10077000F3B301EBC10202EB0116421EB2FBF6F22B
:10078000521C42F48042120549D093B301EBC102DE
:1007900002EB0111401EB0FBF1F0401CC0F30B0056
:1007A00040F4804040F400402168CA694CF6FF7371
:1007B0009A431043C861D4E90701084321680A68D5
:1007C00022F0C00210430860D4E90301014320680D
:1007D000826848F2FF339A4311438160D4E90501EE
:1007E00008432168CA6822F0FF021043C86001E094
:1007F0000EE016E02068016841F001010160256407
:10080000202084F83D00256384F83E50002070BD10
:1008100001EB4106421EB2FBF6F2521CB3E7012087
:10082000C2E701EB4101401EB0FBF1F0401CC0F3F8
:100830000B00B7E7A086010080841E0000093D0080
:1008400040420F00704770477047000078B50024A1
:10085000009490F83D50202D55D12C4D46F2A8160D
:100860002D68B5FBF6F505EBC50606EB05150095FD
:100870006D1E009506D00568AD69ED43AD070DD43A
:10088000009DF5E740F8304F2021417384730169E2
:1008900041F0200101610473012078BD90F83C50C3
:1008A000012D30D0012580F83C5005682E68F607F0
:1008B00003D12E6846F001062E6005682E6826F4E6
:1008C00000662E60222580F83D50102580F83E50AD
:1008D000046442624385428D02850D4AC2624164CE
:1008E00001680A6842F480620A6001680A6842F49A
:1008F00080720A6080F83C400068416841F4E06121
:100900004160002078BD022078BD00002400002056
:100910000000FFFF78B50024009490F83D50202D92
:1009200050D1294D46F2A8162D68B5FBF6F505EB1A
:10093000C50606EB051500956D1E009506D00568E9
:10094000AD69ED43AD070DD4009DF5E740F8304F9C
:10095000202141738473016941F020010161047316
:10096000012078BD90F83C50012D2BD0012580F856
:100970003C5005682E68F60703D12E6846F0010644
:100980002E6005682E6826F400662E60212580F80A
:100990003D50102580F83E50046442624385428DEC
:1009A00002850A4AC262416401680A6842F48072A0
:1009B0000A6080F83C400068416841F4E0614160B1
:1009C000002078BD022078BD240000200000FFFF39
:1009D0007047704710B586B00021009101910291D7
:1009E000039100681449884223D1144CA06940F057
:1009F0000800A061A069694600F0080004904FF467
:100A00004060009012200190032003900C48FFF7F3
:100A100029FCE06940F48000E061E069002200F414
:100A2000800004901146212000F074F8212000F08D
:100A300063F806B010BD00000058004000100240EE
:100A4000000C0140704770470248816802781144E9
:100A50008160704718000020074810B5016841F018
:100A600010010160032000F075F8002000F006F886
:100A700000F024F8002010BD0020024070B50D4D9C
:100A800004464FF47A712878B1FBF0F00A490968FE
:100A9000B1FBF0F000F0DCFA48B9102C07D20022CC
:100AA0002146501E00F036F800206C6070BD012019
:100AB00070BD000018000020240000200C4808B57C
:100AC000816941F001018161816901F001010091B9
:100AD000C16941F08051C161C06900F0805000904F
:100AE0000448416821F0E06141F00071416008BDB7
:100AF0000010024000000140002809DB00F01F0246
:100B0000012191404009800000F1E020C0F800116F
:100B100070470000F0B40E4B1B680C46C3F3022371
:100B2000C3F10705042D00D90425191D072901D299
:100B3000002300E0DB1E012606FA05F1491E2140D4
:100B400099409E40761E16403143F0BC00F027BF0E
:100B50000CED00E0064900F0070208684FF6FF03BD
:100B6000184040EA0220034A104308607047000022
:100B70000CED00E00000FA052DE9F0470F460500F6
:100B800061D0434E306800F00700B84209D23068A7
:100B900020F0070038433060306800F00700B842AA
:100BA00051D128683B4C810712D5400703D56068B6
:100BB00040F4E06060602878000703D5606840F486
:100BC000605060606068A96820F0F00008436060D1
:100BD0002878C00728D06868012810D0216802282A
:100BE00010D0890700292EDA616821F00301014342
:100BF0006160FFF733FC804641F288390DE02168DF
:100C00008903EFE78901EDE7FFF728FCA0EB080176
:100C1000494502D90320BDE8F0876068696800F0A3
:100C20000C00B0EB810FEFD1306800F00700B84244
:100C30000BD9306820F0070038433060306800F08E
:100C40000700B84201D00120E5E72878400705D524
:100C50006068E96820F4E060084360602878000775
:100C600006D56068296920F4605040EAC1006060E0
:100C700000F028F86168084AC1F30311515CC840CC
:100C80000649086006480068FFF7F8FE0020C2E742
:100C90000020024000100240B81A00082400002082
:100CA0001C0000200448054900684968044AC1F353
:100CB0000221515CC840704724000020001002400F
:100CC000C81A000812A185B00FC98DE80F0014A042
:100CD000144A006804905168134801F00C03042B77
:100CE00010D0082B0ED1C1F38343C9031DF80300B4
:100CF0000AD5516804AAC1F34041515C0A4A5043E5
:100D0000B0FBF1F005B0704708494843FAE700002E
:100D100002030405060708090A0B0C0D0E0F10103C
:100D2000010200000010024000127A0000093D009C
:100D30002DE9F84F040070D02078C04DC00749D08D
:100D40006868C0F38100012807D06868C0F381009B
:100D5000022809D16868C00306D52868800339D500
:100D600060680028E7D035E06068B0F5803F0BD0C0
:100D700010B1B0F5A02F11D0286820F48030286081
:100D8000286820F4802002E0286840F48030286041
:100D9000606890B1FFF762FB06460AE0286840F4FD
:100DA00080202860F0E700BFFFF758FB801B642815
:100DB00073D828688003F7D50CE0FFF74FFB064691
:100DC00005E000BFFFF74AFB801B6428F0D82868C5
:100DD0008003F7D420789A4E80074FF001094FF036
:100DE000000839D5686810F00C0F07D06868C0F3A8
:100DF0008100022809D16868C00306D428688007EA
:100E000014D52069012808D110E02069B0B1C6F8D6
:100E10000090FFF723FB074605E00AE1FFF71EFB02
:100E2000C01B0228C4D828688007F7D528686169E4
:100E300020F0F80040EAC10028600DE0C6F800800C
:100E4000FFF70CFB074604E0FFF708FBC01B022876
:100E500023D828688007F7D4207800072CD5794854
:100E6000A169D9B1C0F80090FFF7F8FA074604E08D
:100E7000FFF7F4FAC01B02280FD8686A8007F7D57D
:100E800071484FF4FA510068B0FBF1F0009000BFD8
:100E90000098411E0091FAD20EE080E0C0F8008078
:100EA000FFF7DCFA074604E0FFF7D8FAC01B022878
:100EB00075D8686A8007F7D42078400760D5E8695C
:100EC0000027C00008D4E86940F08050E861E86974
:100ED000012700F0805000905C480168C90513D4D8
:100EE0000168834641F480710160FFF7B7FA8246DA
:100EF00006E000BFFFF7B2FAA0EB0A0064284ED864
:100F0000DBF80000C005F5D5E06801280AD008B17B
:100F1000052813D0286A20F001002862286A20F0F2
:100F2000040002E0286A40F001002862E06841F213
:100F3000883B98B1FFF792FA82460BE0286A40F0AE
:100F400004002862EEE700BFFFF788FAA0EB0A0171
:100F500059455AD8286A8007F6D50CE0FFF77EFA83
:100F6000824605E0FFF77AFAA0EB0A0159454CD812
:100F7000286A8007F6D41FB1E86920F08050E86144
:100F8000E06988B36968C1F38101022944D002286D
:100F9000C6F8608004D0FFF761FA044638E034E018
:100FA000FFF75CFA074604E0FFF758FAC01B022877
:100FB0002BD828688001F7D4206AB0F5803F05D18E
:100FC0006868A16820F4003008436860D4E908012B
:100FD0000843696821F4741108436860C6F860909A
:100FE000FFF73CFA044606E025E000BFFFF736FABB
:100FF000001B022809D828688001F7D51BE000BF34
:10100000FFF72CFA001B022802D90320BDE8F88F55
:1010100028688001F4D40EE00128F7D06868226ABD
:1010200000F48031914204D1616A00F4701088426A
:1010300001D00120EAE70020E8E7000000100240AC
:101040000000424280044242240000200070004020
:1010500010B5401EB0F1807F01D3012010BD4FF0CC
:10106000E02460610F21601700F099FC0020A0616E
:1010700007202061002010BDFEE700000148FFF7B7
:10108000F5B900002800002010B5406A90F83D3006
:10109000426B00219162826B91620268146824F4B1
:1010A000806414604185426B5163826B51630268B6
:1010B000146824F00104146090F83D202024602A74
:1010C0000BD0282232EA03030FD080F83D4080F88D
:1010D0003E1000BFFFF7F7FA10BD80F83D4080F8E2
:1010E0003E100164FFF7C0F910BD03681C6844F0AE
:1010F00001041C6003681C6844F480641C60016384
:1011000080F83D20E6E7000070B5044690F83D0009
:1011100094F83E10102906D1222804D121680A68CB
:1011200022F400620A60282131EA00024FF0000533
:101130004FF0200626D021684968090503D46028AD
:1011400001D084F83D60256384F83E5020684168F2
:10115000090537D5416821F400614160606B384969
:1011600090F82120012A11D04163606BFFF718F835
:1011700038B32068016821F00101016084F83D6006
:10118000606B1CE0256384F83D10DFE7A06B4163D2
:10119000A06BFFF705F8A0B120684169C943490673
:1011A00005D40069616A0870606A401C606220684A
:1011B000016821F00101016084F83D60A06B416B82
:1011C000884710E094F83D10602923D04169C94355
:1011D000490605D40069616A0870606A401C606253
:1011E0002046FFF770FA94F83D00216C490710D5AE
:1011F00028280ED12068416821F4E061416011483F
:10120000E062256384F83D6084F83E502046FFF795
:1012100019FB70BD84F83D6025644169C9434906E6
:1012200005D40069616A0870606A401C60622068C9
:10123000016821F0010101602046FFF715F9D2E7AE
:10124000891000080000FFFF10B5C26A438D0168D5
:10125000042B06D0438D032B08D0438D022B1DD0C9
:1012600012E04A6822F480624A600CE04B6823F482
:1012700080634B60042A06D0022A04D001680A6801
:1012800022F480620A6001680969426A1170416A49
:10129000491C4162418D491E418510BD012A30D053
:1012A000102A2ED0042A30D0022A2ED00A6842F406
:1012B00000720A6001680969426A1170416A491C3A
:1012C0004162428D521E4285026812690A70416A6B
:1012D000491C4162418D491E418501684A6822F4DA
:1012E00040724A60202180F83D1090F83E20002195
:1012F000402A80F83E100CD012210163FFF7A3FAB8
:1013000010BD0A6822F48062D3E70A6842F4806262
:10131000CFE70163FFF75CFB10BD10B590F83D10FF
:10132000222914D1418D032912D901680969426A21
:101330001170416A491C4162418D491E4185418DB0
:10134000032904D10068416821F48061416010BD27
:10135000C26A022AFBD0012901D00029F7D1016815
:101360000A6822F480620A6001684A6822F4E06236
:101370004A6001680969426A1170416A491C416208
:10138000418D491E4185202180F83D1090F83E2076
:101390000021402A80F83E1004D012210163FFF79B
:1013A00052FA10BD0163FFF713FB10BD10B5C26AFE
:1013B00090F83D1021290BD1418D51B1416A02684D
:1013C00009781161416A491C4162418D491E41857C
:1013D00010BD20230021082A13D0202A11D012F595
:1013E000803F0ED00268546824F4E06454601122F7
:1013F000026380F83E1080F83D3000BFFFF724FA0A
:1014000010BD0268546824F4E064546002681468F3
:1014100044F400741460016380F83D3090F83E207D
:1014200080F83E10402AE9D1FFF7D3FA10BD000042
:1014300010B590F83D1090F83E30C26A048D64B14A
:10144000212903D0402B21D122291FD1418DA1B3C5
:1014500090F83E10402937D046E02129F2D12023D0
:101460000021082A13D0202A11D012F5803F0ED077
:101470000268546824F4E06454601122026380F826
:101480003E1080F83D3000BFFFF7DEF910BD026866
:10149000546824F4E06454600268146844F40074EE
:1014A0001460016380F83D3090F83E2080F83E10D3
:1014B000402AE9D1FFF78DFA10BDFFE700684168C7
:1014C00021F480614160F7E7016DC1B1016D01292F
:1014D00022D0016D0229EFD190F83D10222923D0AE
:1014E00090F83D102129E7D1416A0268097811611D
:1014F000416A491C4162418D491E4185DCE7C16C4E
:101500000129816C02D0C1F3072107E00268C9B24A
:101510001161016D891C05E0816CC9B2026811611D
:10152000016D491C0165C7E70068016841F48071DD
:101530000160C1E778B590F83E50C26A046B90F83C
:101540003D6000230168222E73D1066D0EB9402D37
:101550006FD0056D1DB90569B5F5404F1BD0458DA0
:1015600095B3468D484D012E20D0448D022C4DD090
:101570000C6844F480640C6001684C68240579D5DB
:10158000AA4273D0012A71D0082A6FD0102A6DD0D8
:10159000202A6BD06EE04A698A6900920A6842F498
:1015A00080720A60016D491C016578BDAA4214D1A0
:1015B0000A6822F480620A6001684A68120504D54C
:1015C0000A6822F4806217E0FFE74A698A6900929C
:1015D0000A6842F400720A6050E0082A10D0202AFB
:1015E0000ED0122C0AD0042A03D0022A01D0102ACD
:1015F000E6D10A6842F480620A603BE0012ADFD04B
:101600000A6822F480620A600168DEE7042A11D0C9
:10161000022A0FD0102A0DD00C6844F400640C602C
:1016200001684C698C6900940C6824F480640C6037
:1016300008E025E00C6844F480640C6001684C69A3
:101640008969009101684C68240517D5AA4207D022
:10165000012A05D0082A03D0102A01D0202A0DD152
:101660004A6842F480524A6008E0FFE74A6842F460
:1016700080524A6001684A6989690091036578BDB2
:1016800048698869009078BD0000FFFF90F83E101F
:10169000402910D00169B1F5804F19D0016DB1B367
:1016A000016D012910D1416C5FF0F10201F440712C
:1016B00042EAD11106E0016D0029416C05D0C9B2A2
:1016C00041F0010100680161704701F0FE01F9E796
:1016D00090F83D102129416C07D0C9B241F00101B9
:1016E00002681161416B31B902E001F0FE01F7E7D8
:1016F000826B002AE8D0896A19B9816B896A00294E
:10170000E2D00068416841F4006141607047FFE742
:10171000416CF02201F44071CAE70000F8B590F87E
:101720003D6004460068416821F4E0614160206842
:10173000002541690091016841F0010101602068C4
:10174000016821F48061016020684168090520D5A5
:10175000474F222E48D02A2E46D0616B096849682F
:101760006185618D19B1216C41F0040121644168EA
:1017700021F400614160606BFEF75EFD012808D036
:10178000606B4763606BFEF70BFD10B1606B416BE4
:101790008847608D08B320684169C943490708D468
:1017A0000069616A0870606A401C6062608D401E5A
:1017B000608520684169C943490608D40069616AA7
:1017C0000870606A401C6062608D401E6085608D9C
:1017D00018B1206C40F004002064206C00B3204657
:1017E000BDE8F840FFF790BCA16B096849686185C6
:1017F000618D19B1216C41F004012164416821F42B
:1018000000614160A06BFEF717FD0128C1D0A06BFD
:101810004763A06BFEF7C4FC0028BAD0A06BB6E704
:101820002A2E06D12563282084F83D002046FFF7A4
:1018300009F994F83D10202028290DD0216B222988
:1018400001D0222E07D1256384F83D0084F83E5054
:101850002046FFF7F7F8F8BD0649E162256384F8F2
:101860003D0084F83E502046FEF7ECFFF8BD000036
:10187000891000080000FFFF70B586B000241C48E6
:101880000094019402940394816941F010018161F4
:10189000816901F010010491816941F020018161A9
:1018A000816901F020010491816941F008018161A1
:1018B000816901F008010491816941F004018161AD
:1018C00080690C4E00F004004FF400550490002293
:1018D00029463046FEF7BDFD01200095CDE9010403
:1018E0000220039069463046FEF7BCFC06B070BD8E
:1018F0000010024000100140FEE77047704770473B
:10190000FFF7A2B830B58FB028216846FEF711FC6A
:1019100014210AA8FEF70DFC01210804CDE90010EE
:101920000024029402250491CDE907504FF4E01001
:1019300009906846FFF7FCF90F20CDE90A05680217
:10194000CDE90C4002210AA80E94FFF715F90FB05B
:1019500030BD00000D48016841F00101016041689F
:101960000B4A1140416001680A4A11400160016858
:1019700021F480210160416821F4FE0141604FF4AF
:101980001F0181600449C0030860704700100240D5
:101990000000FFF8FFFFF6FE08ED00E0FEE7090794
:1019A000090E002804DB00F1E02080F800147047E5
:1019B00000F00F0000F1E02080F8141D704702E0F5
:1019C00008C8121F08C1002AFAD1704770470020CA
:1019D00001E001C1121F002AFBD17047FFF73CF85C
:1019E000FFF790FFFFF748FF2F482E494FF4804242
:1019F00001602E49416000218160C0E9031241610C
:101A00008161C1610162FEF763FE0A23284AC82191
:101A10002548FEF77FFF2448FEF756FE2028FAD11E
:101A2000214A0A235432C8211F48FEF70FFF1E48DF
:101A3000FEF74AFE2028FAD1FEF79AFB1C4C641EE2
:101A4000012802D12078401C20700A23184ACC219A
:101A50001548FEF75FFF1448FEF736FE2028FAD13E
:101A6000114A0A235432CC210F48FEF7EFFE0E48EC
:101A7000FEF72AFE2028FAD1FEF77AFB012802D1D0
:101A80002078401C20700B4E4FF40055207802281F
:101A9000FCD129463046FEF7D5FCC820FEF7D0FB26
:101AA000F4E700000058004028000020801A0600DB
:101AB00001000020001001400000000000000000B4
:101AC00001020304060708090000000001020304E4
:101AD000F01A00080000002028000000BE190008CD
:101AE000181B00082800002060040000CE19000820
:101AF0000068656C6C6F31323334353534333231D4
:101B000068656C6C6F0000000100000010000000B0
:081B1000000000000024F400B5
:04000005080000ED02
:00000001FF
